:100000000C94AC240C944B270C9424270C94D424EB
:100010000C94D4240C94D4240C94D4240C947227DF
:100020000C94D4240C94D4240C94D4240C94D42470
:100030000C94D4240C94D4240C94D4240C94D42460
:100040000C94DA260C94D4240C94D4240C94D42448
:100050000C94D4240C94D4240C94D4240C94D42440
:100060000C94D4240C94D4247F8992999A9CA3AAAA
:10007000AFB3B7BDC1C1C6CACCCED2D3D5D7DADBF8
:10008000DCDEE0E1E2E1E1E1E1E0DDDBD9D7D4CFA4
:10009000CDCAC5C2BEB9B6B0A8A39E97928E857CC4
:1000A00077736E67605953514D47433F3C38343145
:1000B0002F2C2927262422211F20212224252729ED
:1000C0002C2D2F3135393B3D4043464A4E52565A2E
:1000D0005E61676D6F737A8084888F94979CA1A608
:1000E000A9AFB3B6BABEC1C5C8CACCCED1D3D5D6D6
:1000F000D8DBDDDFDFE0E1E2E2E2E0DEDCDAD7D42C
:10010000D2CFCBC8C3BEB9B4B1ABA39D98918882FE
:100110007D77706964605B57514B47423E3C39358F
:1001200032312F2C2A28272524232223242527294E
:100130002B2C2E31323437393C3F4244464A4E5004
:1001400053575C6063666A70767A7D80878F91937F
:100150009AA0A4A7ACB2B7BABCC1C4C7CACCCED10E
:10016000D3D5D7D9DCDDDEE0E2E2E3E2E0DEDCDAC3
:10017000D7D4D2CFCBC8C4C0BBB6B2AEA79F9C98D1
:10018000928A847F7A736C68635E5B57534E4946EC
:10019000433F3B3A383532302F2D2B2A292725254E
:1001A0002627292B2B2E30323436383A3D3F414317
:1001B000474B4D52565A5F6265686E72777D8186F5
:1001C0008A8F959A9EA2A6ACB2B6B8BBBFC4C7C967
:1001D000CACDD1D3D5D6D8DADCDDDEDFE0E2E3E28A
:1001E000E1DFDDDAD8D5D3D0CDC9C6C4C1BDB7B43F
:1001F000AFA7A19D9A938D8A827B76716B69655EAC
:100200005753504C4845413D3A383534312E2E2C09
:100210002A292827282A2B2C2E31333437383A3DE7
:10022000404346484C505254585D616566696F754D
:10023000797C8186898E92969B9FA2A7ACB0B4B739
:10024000BCBFC0C3C6C8CACDCFD1D3D4D6D8DADAE2
:10025000DCDEE0E0E1E0DFDDDBD8D5D4D1CECBC71A
:10026000C3C0BEB9B0ABA7A29D96918C867F7874AF
:10027000716C64605D59534D4A4946413D3C3A3783
:10028000353331302E2C2B2B29292B2C2E3031328B
:100290003436383A3C3E40424648494B4F53565814
:1002A0005D616567696E73757A7F81868B8F9497C0
:1002B0009DA3A5A8ADB1B5B7BAC0C4C6C8CACDD0B4
:1002C000D2D3D5D7D9DADBDDDEDFE0E0DEDCDAD78A
:1002D000D5D3D0CECBC7C4C2BFB9B3B1ACA6A09C56
:1002E00097928E88827F7B75716C67635E5A5754D4
:1002F0004F4B4A4743403F3B3937363432302F2E3D
:100300002D2B2C2E2F3132333536383C3E3F414495
:1003100046494C505255595C5F62666B6F73767BF1
:100320008083878C9195989BA1A5A9ACB0B4B7B9EF
:10033000BEC2C5C5C8CBCDCED0D2D4D5D7D9DADBD5
:10034000DCDDDEDFDEDCDAD8D5D4D2CFCDCAC7C55E
:10035000C1BDB9B5B1ABA7A39E99938D87827E7AB3
:10036000756F6A65625D5854514D4A4543413E3D43
:100370003A37353432302F2F2E2D2E30323334355C
:10038000373A3B3D41434445494C4D505357595CE6
:100390006163666A6D6F73787B7E80868C8E9094C5
:1003A000989C9FA4A9ABADB2B5B9BCBEC1C4C5C928
:1003B000CBCCCED0D2D3D5D7D8D9DADBDCDDDBD9E4
:1003C000D8D5D2D0CFCCC8C5C3BFBCB8B3AFAAA50F
:1003D000A09A96928D8783817B75706C6763615D4F
:1003E000585451504C484543413F3E3C39373535D0
:1003F000333231302F2F3133343537383A3B3D3FAC
:1004000041444648494B4F535556595E6163666BAC
:100410006E6F74797D8184878D9294989DA2A3A636
:10042000ACAFB3B7BABDBFC2C5C6C9CBCDCFD0D2B2
:10043000D4D5D6D7D9DADBDBDBDAD8D6D4D1CFCD59
:10044000CCCAC7C4C1BEBBB7B3AFABA8A39E9B9772
:10045000908A86837F7975726C6965615C595650A4
:100460004E4D49464341403D3A38373635333130B9
:10047000313234363638393B3E40414345474A4CA9
:100480004F515457595C6064666A6D6F70737A7E21
:100490008084898C8E90959A9C9FA2A6AAACAFB3BB
:1004A000B6B8BBBEC0C2C4C6C9CBCCCDCED1D2D3E8
:1004B000D4D5D6D8D9D9D8D6D4D2D0CFCDCAC6C41F
:1004C000C1BEBAB7B3AFAAA6A19B97938E8A868105
:1004D0007D78726F6B6763605D5A56504E4D4A4827
:1004E0004543413F3C3B3A3837353433333233357B
:1004F0003637383A3D3D3E40434445474A4D4F50DC
:100500005254585A5D606466696D6F7275797C806B
:1005100084888C8F9194999DA1A4A6AAADB0B3B8FC
:10052000BCBEBFC2C5C7C8CACCCDCFD0D1D3D5D52C
:10053000D6D6D8D7D5D3D2D1CECCCAC8C6C3C0BEE2
:10054000BAB6B2B0ACA8A3A09D9894928D87837FD1
:100550007A7775716B6766625E5A5754524F4B4893
:10056000474643413F3D3B393836353534343537DE
:10057000393A3C3D3E41434446484B4D5052535519
:10058000595B5F6363666A6D707476797E81848778
:100590008A8D8F92969B9EA0A5A8ABACAFB2B4B744
:1005A000BABDBFC1C2C4C5C7C9CBCBCDCECFD1D3D5
:1005B000D3D4D6D6D4D2D1CFCECBCAC7C4C1BFBD77
:1005C000BAB4B0AEABA6A29E9995918B86837F7B81
:1005D00076736E6A6865615D5A5753504F4C494750
:1005E0004643413F3E3C3B3A39373635353637385E
:1005F000393B3D3E3F4142444648494B4D4F5254A2
:1006000056595B5C5E6165676A6D707375787C7F57
:100610008285898E919394989EA0A2A5AAACAFB32F
:10062000B6B8BABDBFC0C3C6C7C8C9CBCDCECFD080
:10063000D1D2D3D4D3D2D1CECCCAC8C7C5C3BFBC04
:10064000BAB8B5B2AEA9A6A39E9B9994918E89849F
:1006500082807C7773706C6964615F5C595653501B
:100660004E4D4A48454343403E3D3C3A3837373784
:1006700038393A3B3D3F4042444547494B4D4F5244
:100680005455585B5E606165686B6E6F7377797CFB
:100690007F8287898B8E929596989C9FA2A5A8AB06
:1006A000ACAEB2B5B8B9BBBDBFC2C2C3C5C6C8C97E
:1006B000CACCCDCECFCFD1D2D1CFCECCCAC8C7C471
:1006C000C1C0BEBBB7B4B1ADA9A5A19D9B98938D88
:1006D000888583807B7774706C6866625F5C59572D
:1006E00055514E4C4A494745434241403E3C3B3AB6
:1006F000393838393A3B3D3E3F4041434546484909
:100700004B4D4F51535557595B5E5F6164686B6C3D
:100710006E7174777B7F828485878C8F9296989B8D
:100720009DA2A5A7A9ACAFB3B5B7B9BCBDBFC2C3A5
:10073000C4C5C7C9CACACCCDCECFCFD0CFCDCBCA06
:10074000C9C6C4C2C1BEBBB9B8B5B1AEABA8A5A13C
:100750009E9B9794918E8B8582817E7974706D6A51
:10076000686563605C585755524F4C4B4A48444348
:1007700042403F3E3D3B3A39393B3C3D3E4042439F
:100780004446484B4C4C4E51545556595D5F60623F
:1007900065676A6D6F7274787C7C7D8085888A8DD0
:1007A000909293979A9B9EA3A5A6A7ABADAEB1B42A
:1007B000B6B8BABDBEBFC0C1C3C4C5C6C8C9CACB1E
:1007C000CCCCCDCDCBC9C7C6C5C3C0BDBBB9B6B3F4
:1007D000B0AEABA6A29F9C9995918E8B86817F7CB3
:1007E0007976716E6C6A66625F5E5B585653514FE4
:1007F0004E4C4A484645444241403F3D3C3C3B3BD1
:100800003C3C3E3F404142444547484A4B4D4F5196
:10081000535556575A5E60616265686A6E707273AE
:10082000777A7D7F8185898C8E909396999C9D9F08
:10083000A4A7A9ABAEB0B1B3B8B9B8BBBEBFC0C274
:10084000C2C4C5C6C7C9CACACBCCCBCAC9C7C5C42E
:10085000C3C1BEBCBBB8B6B4B1B0ACA8A5A3A09D83
:100860009995918F8C878684807C7875726F6B6880
:1008700067635F5D5A575553514F4D4A4947454449
:100880004341403F3E3D3B3C3D3E3F40414345466A
:1008900047494B4C4E4F52535455585B5D5F606215
:1008A0006467696A6C70737375797C7E80828587F2
:1008B0008A8C8E91949798999CA1A2A3A6A9AAAC80
:1008C000AEB0B2B5B7B9BBBCBDBEBFC1C3C4C5C66F
:1008D000C7C7C8C9C9C8C6C4C3C1BFBDBBB9B7B4FF
:1008E000B2AFACA9A6A5A19D9A9795918E8C88834D
:1008F00082807D797572716F6C686463615E5B5A2A
:1009000058565452504E4C4B4A4846454443424038
:100910003F3E3E3E3E3F40414344454748494B4DA4
:100920004E5051535557595B5D5F616265686B6D01
:100930006F717477797C7E808386888A8C8F91949E
:1009400097999B9EA0A3A5A6A8ABABADB0B3B4B539
:10095000B7B9BBBCBCBDBEC0C2C3C3C3C5C5C7C796
:10096000C7C6C4C3C2C0BEBDBBB9B7B4B1AFADABDF
:10097000A8A5A2A09C989693908C888583807C786B
:100980007573716C696765635F5C5A58575452514F
:100990004F4D4B4A48464645434241403F3F3F400A
:1009A00041424344454647494A4B4D4E50515254AB
:1009B0005658595A5D5F60616365686A6C6E717202
:1009C0007478797A7C808284878A8C8F91929497CC
:1009D0009B9D9EA1A4A5A7A9ABADB0B1B3B5B7B976
:1009E000BABBBCBEBFC0C1C2C3C3C4C5C5C4C3C2F9
:1009F000C0BEBDBCBAB8B6B3B1B0ADAAA8A7A4A1D9
:100A00009E9B99979492908D8A8783817E7B78753F
:100A100073716F6B676664625F5C5A5956555250CA
:100A20004F4E4C4A4948464443424140404042426E
:100A300043444647484A4B4C4D4F515255575859DD
:100A40005C5D5D60636465676A6C6E6F7376767813
:100A50007A7D7F80838687888A8D91939497999AEF
:100A60009B9EA0A1A2A5A8A9AAACAEB0B1B3B5B6F1
:100A7000B7B9BABBBCBEBEBFC0C1C2C3C3C2C1C08E
:100A8000BEBCBAB8B7B6B3B0AEACAAA7A4A19E9C80
:100A90009B979491908D888584827E7C7976737102
:100AA0006F6D6A686664615F5D5A59575655525159
:100AB000504E4C4C4B4947474645444342414142C6
:100AC0004445454647494B4C4D4D4F515253555760
:100AD000595A5C5E5F62646567696C6E70727475AA
:100AE000777A7D7F818386888B8C8D8F929597987E
:100AF0009A9D9FA1A1A3A6A8AAACACAEB0B2B3B474
:100B0000B5B7B8B9BABBBBBDBEBEBEC0C1C1C1C01E
:100B1000BFBDBBBAB9B7B5B3B1AFAEACA9A7A4A2BC
:100B20009F9D9B9794918F8D898885817E7B797617
:100B300073706E6C6A686462605E5C5A5957555394
:100B400051504E4C4C4B4A4847464545444242431F
:100B50004445464748494A4B4D4E4F5052535454D2
:100B600056595A5B5C5E6061636566686A6B6E705D
:100B7000717374777A7B7D80828486888A8C8E906C
:100B8000919497989A9DA0A1A1A3A6A8A9ABADAF57
:100B9000AFB0B2B5B6B7B8B9BABBBBBDBEBEBFC0C9
:100BA000BFBEBDBCBAB8B7B5B4B2B0AFADAAA8A607
:100BB000A4A29F9E9D9B98959290908C88868482FB
:100BC000807D7A787673706E6D6A676564615F5E4A
:100BD0005B5858575553514F4D4D4C4B494747461D
:100BE00045444344454647484A4B4B4C4E5051526E
:100BF00054555658595A5C5D5F60626466686A6C09
:100C00006B6D7071737577797A7D7F80828485874B
:100C1000898A8C8E9092949597999A9C9E9FA2A572
:100C2000A6A6A7A9ABACAEAFB0B2B4B5B5B6B7B9CE
:100C3000BABABBBCBDBDBDBBBAB8B7B5B4B2B0AE35
:100C4000ADACA9A6A4A2A09E9C9A979593908D8CDA
:100C500089868583807D7A79777674716E6D6A690D
:100C6000686663615F5E5C5B595757555452504FDD
:100C70004F4D4C4B4A484747464545464747484AEB
:100C80004B4D4D4F505153545556585A5C5D5D5F16
:100C900062636466686A6C6C6F71727377797A7B71
:100CA0007D7F80838687898A8C8D8F919495979894
:100CB0009A9C9D9EA0A2A3A4A5A7A9AAACACADAEE8
:100CC000B0B1B2B3B4B5B6B7B8B8B9BABBBBBABABB
:100CD000B9B7B6B4B2B1AFADACA9A7A6A4A29E9C59
:100CE0009B989592908F8D8A878583807E7C7A777A
:100CF0007572716F6D6B6967646362605D5D5B598E
:100D0000585755535251504F4F4D4C4B4A494948F3
:100D100047464748484A4A4B4C4D4E4F5051535412
:100D2000555656585A5B5D5F5F6062646667686AD5
:100D30006C6E7070727577797A7C7F80818386881B
:100D40008A8B8C8E9294939496999B9C9EA0A2A33E
:100D5000A3A5A6A7A9AAABACAEB0B0B0B2B4B4B5C7
:100D6000B6B6B7B8B9B9B9B9B8B7B5B4B4B2B0AE28
:100D7000ADABA8A8A7A4A2A19E9C9A989694918F87
:100D80008D8B89868382807D7B78767472706D6BA3
:100D90006968666462605F5D5B5959575554535288
:100DA000514F4E4E4D4B4B4A49494847484A4B4B91
:100DB0004C4D4F505051525454565757585A5B5CF3
:100DC0005E5F606262646668686A6C6D6F707173A2
:100DD0007576787A7C7D7F8082858687898B8D8FFA
:100DE00091919395979A9B9B9D9FA1A3A4A4A5A73E
:100DF000A9AAABACAEAFAFB0B2B3B3B4B5B6B6B7E9
:100E0000B8B8B7B5B4B3B1B0AFAEADAAA9A9A6A4EE
:100E1000A3A2A09E9C9A97979592908F8C8A888780
:100E20008583817D7B7A787573726F6E6C6A696772
:100E30006563615F5E5C5A59585755535252515021
:100E40004E4D4C4C4B4A49494A4B4C4D4D4E5051DE
:100E5000515254555557585A5A5C5D5E60616162F3
:100E6000656666696B6A6B6D6F7172747475777A9B
:100E70007B7C7D7F8183838486898B8C8C8F909112
:100E800094959798999A9C9D9EA0A2A4A4A5A6A883
:100E9000AAAAACADADAFB1B1B2B2B3B4B4B5B6B548
:100EA000B4B3B2B1B0ADABAAA9A8A6A4A3A19F9EAA
:100EB0009C9B98959594928F8E8C8A888785838148
:100EC0007F7E7D7A77767573706E6C6B6B69666505
:100ED0006362615F5E5C5A59585756545352515081
:100EE0004F4E4D4C4B4B4A4B4C4D4E4E5051525227
:100EF0005455565758595A5B5D5F5F61626364662B
:100F00006769696A6C6E6F7071737576787A7B7CCD
:100F10007D7F81828384858889898B8C8E90929253
:100F200093949698999A9B9D9E9FA0A1A2A5A6A6F0
:100F3000A7A8A9AAABACAEAFB0B0B1B1B2B3B4B4CC
:100F4000B3B1B0AFADACABA9A7A6A5A4A19F9E9C21
:100F50009A9997959492908F8D8A898785838181BC
:100F60007F7D7A797776757271706E6C6A69686761
:100F700065636261605E5D5B5A59585756555453BC
:100F80005151504F4E4D4D4C4C4C4D4F5050515275
:100F9000535455565758595A5B5D5E5F60616264A1
:100FA000656768696B6C6E6F6F7173757778797947
:100FB0007B7C7E808182838586888A8A8B8C8E90DA
:100FC00092939394979898999B9B9D9D9FA0A1A382
:100FD000A3A4A5A6A7A8A8AAABACADADAEB0B0B06F
:100FE000B1B2B2B1AFAEADACAAA9A8A5A4A4A2A05B
:100FF0009E9C9B999796949190908E8B88878684DF
:1010000082807F7D7C7A7876747472706E6D6C6B82
:1010100069676766646261605F5D5C5C5A595857D6
:1010200056555553535251504F4F4E4D4E4F4F50B2
:10103000515252535455565758595A5B5C5D5F6034
:1010400061626465656667696B6D6E6E70727374FC
:101050007576787A7B7D7E80818183858687898A93
:101060008B8C8E8F90909395969697999A9A9C9D3B
:101070009E9EA0A1A2A2A3A4A6A6A7A8A8A9AAAB27
:10108000ACACADAEAFAFB1B1B0AEADACABA9A8A694
:10109000A5A4A2A09F9D9B9A9896959391908F8DC1
:1010A0008B8987868583807E7D7C7A77767674725D
:1010B000706F6E6C6A6A69666565636261605E5DC9
:1010C0005D5C5A59585757565654535352525150C3
:1010D0004F4E4F5051515253545455565759595AD7
:1010E0005B5B5D5E5F60616264656567696A6B6CCE
:1010F0006E6F70717374747678797A7C7D7E80817E
:1011000083838586888A8A8B8C8E8F909193949422
:101110009597999A9A9A9C9E9E9E9FA2A2A2A3A4FA
:10112000A5A5A6A7A9A9A9AAABACACADAEAEAEAE1B
:10113000ADACAAA9A8A7A5A4A3A2A1A09D9B9A997A
:101140009896939190908E8B898887858482807EF3
:101150007C7B797877757372706F6E6D6B69686779
:101160006565646261605F5E5E5D5B5A5A585857A0
:101170005655555454535251515050515253535443
:10118000555556575859595B5C5C5D5E5F606262AD
:101190006465656768696A6B6D6E6F71717274768C
:1011A0007778797B7C7D7E80818284848587898A3B
:1011B0008B8C8C8E90919192949595979899999A01
:1011C0009C9E9E9FA0A0A1A2A3A3A4A5A6A6A7A8FB
:1011D000A8A9A9AAABABACADADACABAAA9A8A7A670
:1011E000A5A3A1A09F9D9C9B999896959491908E64
:1011F0008C8B8A8887858382807E7D7C7A787776DF
:10120000757371706F6D6C6A696968666563626237
:10121000615F5E5D5D5C5B5A59595857565655552E
:101220005453525252525353545556565758595973
:101230005A5B5C5C5E5F5F606162646465666768A0
:101240006A6B6C6C6E7071717374757778797A7C77
:101250007D7D7E8082838384868989898B8C8D8E37
:101260008F909192939596979797999A9B9C9D9D15
:101270009E9FA0A0A1A2A3A4A4A4A5A6A7A8A8A835
:10128000A9AAAAABABABA9A9A8A7A5A4A3A2A1A0F0
:101290009E9D9C9B999796949292908F8E8C8A8813
:1012A00087868483817F7E7C7B7A7877757473717F
:1012B000706F6E6D6B6A69676666656463616160B5
:1012C0005E5E5D5D5C5A5A59595858575656565489
:1012D0005453535455555656575959595A5B5C5C9B
:1012E0005D5E5F606162636465666767696A6B6BB8
:1012F0006C6E6F7070727375767778797B7B7C7D9E
:101300007F8082838484858788898B8B8C8D8E8F68
:10131000919191939596969697989A9A9A9B9C9E5E
:101320009E9F9FA1A1A1A2A3A3A4A5A5A6A6A7A88D
:10133000A9A9A9A9A9A8A7A6A5A4A2A1A0A09E9D64
:101340009C9A99979695939291908E8C8B8A888689
:1013500085848381807E7D7C7B79777675747272DB
:10136000716F6D6D6C6B69686766666463636261FB
:10137000605F5E5D5D5C5B5B5A5A595958575656C3
:10138000555555555656575859595A5B5B5C5D5ED5
:101390005E5F60616263646566666768696A6B6DFB
:1013A0006E6E6F7072727375767777797A7B7C7DEB
:1013B0007E808182828485858688898A8B8C8D8DCA
:1013C0008E8F90929293949495979798999A9A9BCE
:1013D0009B9C9D9E9F9E9FA1A2A2A2A2A3A5A5A504
:1013E000A5A6A7A8A8A7A6A6A5A4A3A2A19F9E9DBF
:1013F0009C9B9A989796949392908F8E8D8C8B89C4
:10140000878685838281807F7D7C7B7A7876757400
:10141000737272706F6E6D6B6B6A69686766656414
:1014200064636261605F5F5E5E5D5C5C5B5A5959DC
:1014300059585756565657575859595A5B5B5D5D20
:101440005D5E5F60616162636465666668696A6A61
:101450006B6D6E6E6F707273737576767677797B5F
:101460007B7C7E7F7F808182838485858788898A53
:101470008A8B8C8D8E8F8F90919293949495959763
:101480009898999A9A9B9C9B9D9E9E9F9FA0A0A195
:10149000A2A3A3A4A4A5A6A5A6A7A6A4A3A2A2A00E
:1014A0009F9E9D9C9A9A9998969594939191908ECF
:1014B0008D8C8A8988868685838281807E7D7C7BEF
:1014C0007A787776767574727170706F6D6C6C6BFC
:1014D000696968686665646464636161605F5E5ED3
:1014E0005D5D5C5B5B5A59595858585858595A5B5E
:1014F0005B5C5C5D5E5F60606162636364656666E1
:1015000067686A6A6A6B6C6E6F6F707173737475FB
:1015100076777878797A7B7D7D7E7E7F8081828305
:1015200083858686878989898A8B8C8D8E908F8F1B
:10153000919292939394959697989999999A9C9C45
:101540009C9D9D9E9FA0A0A0A1A2A3A3A3A4A5A58E
:10155000A4A3A3A1A0A09E9D9D9C9B9998989796BB
:1015600094939291918F8E8C8B8B8A8988868584B7
:10157000838280807F7E7D7B7A7A797876757474B9
:10158000737171706F6E6D6C6B6B6968686766659F
:10159000646463626161605F5F5E5E5C5B5B5B5A5B
:1015A000595959595A5B5B5C5D5D5E5F5F60606174
:1015B000626363646566676868696A6B6B6C6D6EAD
:1015C0006E6F7071727373747575777878797A7BD2
:1015D0007C7C7D7E7F7F80818282848485868688F4
:1015E00088898A8B8B8C8D8E8E8E9091929393931B
:1015F00095969697979999999A9B9C9C9D9E9E9F4C
:10160000A0A0A0A1A2A2A3A3A3A3A2A1A09F9F9ECA
:101610009D9B9B9A99989796959594929190908F6F
:101620008E8D8C8B8A898887858584848381807F51
:101630007D7D7C7C7A787777777574737271706F43
:101640006E6D6C6C6B6A6967676665656463626121
:1016500061605F5F5E5E5D5C5C5B5B5A5A5B5B5BBF
:101660005C5D5E5E5F5F6061626262636465656669
:1016700067676869696A6B6C6C6D6D6F6F707171AB
:10168000727374747575767778797A7A7A7C7C7DE2
:101690007E7F808081828383858686878889898A08
:1016A0008B8C8D8E8F909090919293949495969729
:1016B000979898999A9B9B9B9C9D9D9E9E9F9FA06F
:1016C000A0A0A1A2A2A2A09F9F9E9E9D9C9C9B9A2F
:1016D00099989897959595949291908F8E8E8D8CE0
:1016E0008B8A898887868584838281807F7E7D7CC2
:1016F0007B7A7978767674747372716F6F6E6E6CB4
:101700006B6B6A6868676765656463626262616083
:101710005F5F5F5E5D5D5D5C5B5B5C5D5D5D5E5FF5
:101720005F5F606161626263646465656666676885
:101730006869696A6A6B6C6D6D6E6E6F6F717272DB
:101740007374757676767778797A7B7B7C7D7E7E0E
:101750007F81818283848485858788898A8B8A8B2F
:101760008C8E8E8E8F91919292929394959596975E
:1017700098989899999A9A9B9B9C9D9D9D9E9E9FB7
:101780009F9F9FA0A0A1A09F9E9E9D9C9B9A9A997F
:1017900098989795959493929191908F8D8C8C8B2E
:1017A0008A8987868685848281817F7F7E7C7B7A19
:1017B00079787876757574737271716F6F6E6D6C00
:1017C0006B6B6A69696867676665656464636262B2
:1017D00062616060605F5F5E5E5E5D5D5D5E5E5F1C
:1017E0005F606161616162636364646566666767C7
:1017F0006869696A6B6C6C6C6D6F6F6F7071717218
:101800007374757576777878797B7C7B7C7D7E7E4A
:101810007F808182828384858586878788898A8A7A
:101820008B8B8C8D8E8E8F8F9091919292939394BF
:101830009495969696979798989999999A9A9B9C29
:101840009C9C9D9D9D9E9E9F9F9E9E9D9D9C9B9AC8
:101850009A99989796959493929291908F8E8D8C59
:101860008C8A89888887868584838281807F7F7E31
:101870007C7B7B7A79797877777574737372727100
:10188000706F6F6E6E6D6C6C6B6A696968686767A4
:10189000666665646463636262616160605F5F5F26
:1018A0005F5F5F6060616162626364646465666615
:1018B00067676869696A6A6B6C6D6D6E6F7070716D
:1018C0007172727374747676777878797A7A7A7BB3
:1018D0007C7D7E7E7E7F80828281828384858585F9
:1018E0008687888888898A8A8B8B8C8D8D8E8F8F4E
:1018F00090909191929293939495959596979798AD
:101900009899999A9A9A9B9C9C9C9C9D9E9E9D9C22
:101910009C9B9A9998989896969595939292919166
:10192000908F8E8E8C8C8C8A898988878686858418
:101930008383828080807F7E7D7D7C7B7A797978CD
:1019400077767575747372717170706F6E6D6D6C82
:101950006C6B6A696968686766656565646363631B
:101960006261616160606060616161626263646460
:10197000646566666667676869696A6B6B6B6C6CE1
:101980006D6D6E6F6F707171727273737474757642
:101990007677787878797A7B7B7B7C7C7D7E7F809C
:1019A0008081818283838484858686878888898AEA
:1019B0008A8B8C8C8C8D8E8F909090919292939339
:1019C0009495959596969697979898999A9A9A9AA3
:1019D0009B9B9B9C9C9D9C9B9B9B9A999898989762
:1019E00096969594949392929190908F8E8D8D8CE3
:1019F0008B8A8A8988878686858484838180807F94
:101A00007E7D7C7C7B7A7978787776757474737256
:101A100071706F6F6F6E6D6D6C6B6B6A6969696801
:101A20006867676666656565646363636262626171
:101A30006161626262626364646465656666676769
:101A400067686869696A6B6B6C6C6C6D6E6E6E6FE3
:101A50007070717272737374747576777778787842
:101A60007A7B7B7B7C7D7E7F7F7F8081818283848C
:101A7000848485868687888889898A8B8B8C8C8CE0
:101A80008D8E8E8E8F90909090919292939293944F
:101A90009494959596969697979898989999999AD7
:101AA0009A9A9A9B9B9B9A999998979696969594B1
:101AB00093939291908F8F8E8D8C8B8B8A8989884E
:101AC000878686858483838281807F7E7E7E7D7CFF
:101AD0007B7A7A79787878777675757473737272A1
:101AE0007271706F6F6F6E6D6D6D6C6B6B6A6A6922
:101AF000696868676767666665656464646363638D
:101B0000626363636465656565666767686869697C
:101B10006A6A6B6B6C6C6D6E6E6E6F7070717272E8
:101B200073737474757576767778787879797A7B4B
:101B30007C7C7C7D7E7E7F7F7F80808182828383B0
:101B4000838485858686868788898889898A8B8B20
:101B50008B8C8D8D8D8E8F8F909090919292929391
:101B6000939494959595969697979798989999990F
:101B7000999A9A99999898979696959594939393FC
:101B8000919190908F8F8E8D8C8C8C8B8A8A898886
:101B9000888786868585848383828281807F7F7E15
:101BA0007E7D7C7B7A7A79797877777675747474B0
:101BB00073727171706F6F6E6D6D6D6C6B6B6A6A45
:101BC0006A696968676767666665656564646463B2
:101BD00063646465656666676767686868696A6A9A
:101BE0006A6B6B6B6C6D6D6D6E6E6E6F6F7070711E
:101BF0007172727373747474757676767778787898
:101C0000797A7B7B7C7C7D7D7D7E7F7F80818182FC
:101C100082838384848586868787888888898A8B5F
:101C20008B8B8C8C8D8D8E8E8F8F8F9090919191D0
:101C3000929293939394949495959595969696975E
:101C40009798989898989899989797979695959423
:101C500094939292919191908F8E8D8D8C8C8B8A92
:101C60008989888786868585848382828180807F32
:101C70007F7E7D7C7C7B7A7A7979787776767675CB
:101C800074747473727271717170706F6F6E6D6D48
:101C90006D6C6C6C6B6B6B6A6A69696868686867A5
:101CA00067666666656565656566666667686868D1
:101CB0006969696A6A6B6B6B6C6D6D6D6E6F6F6F66
:101CC00070717171727373737475757576777878D6
:101CD000787979797A7B7B7C7C7C7D7E7E7F7F7F47
:101CE00080808181818283838484848585858686C2
:101CF00087888888898989898A8A8B8B8C8C8D8D45
:101D00008D8E8F8F8F8F90909191919293939393CB
:101D10009494959595969696979797979897979662
:101D20009695949494939292929190908F8F8E8D99
:101D30008D8C8C8C8B8A8A89888887878686858417
:101D40008584838382818180807F7F7E7D7D7C7C92
:101D50007C7B797979787777777675757474737316
:101D600072717171706F6F6E6E6D6D6C6C6B6B6B91
:101D70006A696969686868686767676766666667E9
:101D8000676868686969696A6A6B6B6B6B6C6C6DB4
:101D90006D6D6E6E6F6F6F70707171717272727344
:101DA00074747474757676767777777879797A7AC9
:101DB0007A7B7B7C7C7D7D7E7E007F807F7E7D7CD0
:101DC0007C7B7C7E8184868686898C8B888B8F8DBC
:101DD00084796E696B6B6A70726A696D605B6E8123
:101DE000919FAAA89A9DA19BA0AAB1B8B8B19A70D8
:101DF0004E404554544F4B454243402D2C5596BAC6
:101E0000B3B6CDD4C7C5CFCEC6D1D2BBA3743E2BFB
:101E10003B5046313D40353C3D3C5483A7C8D5C47A
:101E2000BECDE2EDF3D5B7C0B8B284443B2A1C3234
:101E30004629001B3F2610304F6289B3C7C6C9D060
:101E4000C7CBD2CCCFCAC0AE8B7A765B3D47594A5E
:101E50003D4D4F3D3C59787884A7B8AAB3DBC6A264
:101E6000AEB7C2B88580997E5D65431232421917BC
:101E7000504536645B71907C7D9BBEC6C0C6CAC0AF
:101E8000BBBDB2A59094AA8B585B7161595452683E
:101E90005F5066797576889B9EA3A69E96A5A885B9
:101EA00088816770726B553C526B4E3F5C5A5A7911
:101EB000856669AEAB92ACB3B29FA3C7A988ABB736
:101EC00091888F7E726A6775746962526463617EFD
:101ED00077617AA1756180909185868280857D7514
:101EE0007C7A7B7A6D6B7270676C78786B868F6F9B
:101EF0008B9B8897A3979FC0A87B9DBCA05A78D046
:101F00008336628363656A4058856C57717965686A
:101F1000928A5C7BAD857A9E7B8697717477797A9D
:101F2000717A7B7376877F5E759C938D866EB2DF48
:101F30007865A5A28F817A7B7B78929B594B7B89B0
:101F40005E60826D7D63649C6E5C90A17556779A2D
:101F50008371848375878A7C76889A899569589D70
:101F6000926B7B927D87967B859A78608A9577784D
:101F7000888C8570769C8C63799E7350918C59788F
:101F80009280656C8E866F7C8D867B7B848C7A7765
:101F900099947A787F8B81737B7D898C78788A8617
:101FA0006B7D8F767B8A7C81A283617B8785808530
:101FB000826D738A83788283807B7C858873749238
:101FC0008C7E72789185777F7C7E8C8A7872848C07
:101FD0007C7B848681777F857A788380727C8A7F18
:101FE0006F808B737493866B84907F7B8A82828FE1
:101FF0007A828C7C7881827A7E7E7B7C8181767B02
:102000008A85797B888582837983827C867F797EC5
:10201000827877807B7B7E7D7D81807C847D7A88E1
:102020008280848285847F8188867E7A7F837E7F9A
:10203000807D7D7F827A808B7E787F8182858077AC
:102040007D817E7E827D7A807D7A80817D81817CAA
:10205000817F7F807B7D828180808181808184837C
:102060007E82837E83837F7F818081817D7F817F6C
:102070007E7F7E7E81807D7C7E817E7D807F7F8075
:102080007F7F80807F7F80807D7F807F7F807F7E5D
:1020900082807F80818080817F80808083807E803D
:1020A00082807F80808080807F7E7F807E7F7F7E39
:1020B0007F7F7E7F7F7F7F7F7F7F7F7F807F7F7F30
:1020C0008080807F7F80807F80807F808080807F15
:1020D0008080808080808080808080808080808000
:1020E0008080807F7F7F7F7F7F7F7F7F7F7F7F7FFD
:1020F0007F7F7F7F808080807F80007F817D827C6A
:1021000083798672B2DEB4BAF4B1676E180A213BE5
:1021100077789965538F647691A192B6AA96AEAFFF
:102120009C77484A455088767DA7856A706F6B8496
:102130009A8E86748B8C6E556398A59886636C75A1
:10214000667D707E816C67718EA6AEB6AA8D8F8615
:10215000776A716B6074625B6472776E7477868F76
:10216000AAAEA28D8C8F777D737374726F696F6B5B
:102170007481847F858B9086797D82837C7D85893F
:102180008A92908788817B7674736F676A6D7076A8
:102190007F868D8A8F908682848381827C77768009
:1021A0007E7F847F7E7E7E7A75787D7E8283838447
:1021B0007C7B7C7C7E7E7E7F817D7F8083837E7D39
:1021C0007F7E7C7F8285848586837F7E7D7F7C7B0E
:1021D0007B7877797C7F8182828280807F81818415
:1021E0008589898A86837F7C787673737375757722
:1021F000777A7C7E82868A8B8B888584827D7E7AC4
:10220000778DFA923F410912324D7F9784B1E0F801
:10221000F1DBCEB18C8BA18D52605E1911255A4C29
:1022200028486D76A3D1A6CCC7AC8E72978D6B571C
:1022300049749AA09E8A80794E3461849C92A1A4AC
:102240008F71747E5C64636161718DA4B8C5C2AC2A
:102250009F76756E56544C624F56565C768F9EB57F
:10226000B3A3A9958B9174685C49556D828A767B7E
:1022700085747C7D93938C8D8D7C8892858C75681C
:102280006C77787A878881777C726D74848E908879
:102290007A88887F756C757F7B85887E828A87893E
:1022A0008784817C77737E7B79797D7E7B78767974
:1022B0007D7E8381848D8F8D898A897E7B7A756FFF
:1022C000727775767777787C848B89858388898423
:1022D0007E7D7E7E7B7B7A7A7E8386848584807C0D
:1022E0007A7A7B7B7C7B7D7F817E7E807F7F807F17
:1022F0007D7D7C7D7C7E7D7E8184888A8C8B8884BC
:10230000807F7C7B7A78767576777778787A7D802F
:102310008183828577275DBFAE7E5BA2CEBCC97507
:10232000786B643E4272737E84A9526B75868C858D
:102330007981A689507B84AFBDA7B1783F3D899B49
:10234000B5905539657379615F907E707985A092FB
:102350007A6669827F78A8A593887E9A8686767247
:10236000738A5F6683746D638296917D848C8C869C
:102370007191A493886D61545D698996A2A491833B
:102380007F796C697B7C73796F746C6A737E8889E2
:102390008E888991938F99998882826D6C69646522
:1023A00063686F7D82878F988D92959080857C7809
:1023B000727878767273767F7E8380808083818561
:1023C000848887897E767C828079A752444A7D41C1
:1023D00051667D8FAEDCDDCACFE8A5894B5D5249E1
:1023E0003048856E598064498FB4B3AF8D66446BB5
:1023F000A08E74548B8F85986E7D766E9599627FD2
:10240000765F868FA7B8B38F939B527A60444E361F
:10241000496F687E969EA8A1D5C7A77C8A788F91C0
:10242000846A73595C603B434464596C95C9D2CD4E
:10243000A4726591928386424D6FA89786807B7DBA
:1024400068787F6163AA7D81A0908B8C71876356C9
:10245000534271808E7A96A0C3A98B556E757A8B84
:1024600082B6A19A8463688C948C5E6346535D77D0
:102470007B7698725B6AA3CBB091928C909C7F5DC7
:102480004D61907567535270827C7AA09189C39593
:102490007B7661695A8591A3AC8C686F81806B5E95
:1024A0007792949A918E9F969F867A69715B557503
:1024B0007F7A717F6B574F61A2AEA59B9077836D3A
:1024C0005F767E7C606F8A8E7F799EC1988D7C530B
:1024D0004E72837F939874706164665B71879BA36F
:1024E000B4DAC7B2A69386734D576557533E6261FF
:1024F0005A5860778E9D9C857CAAB9ABB28D979413
:1025000093856D604D56645F4A567B878EA7908990
:10251000978B8E7A7D79756874837687A49D8C807D
:1025200073715F6B64777B8793947D909DA8917D99
:1025300074695D77979CA07A73707270635F6A6943
:102540007A8A7F636485978F96898F9989849AA008
:10255000977979635F5B6A847A77686D768285A5FF
:10256000A49479888D72796F6F7578816D75817C8F
:1025700082A0A5A4917D7D757F5F59676977797A7F
:10258000838182777E8A888EA39F939594846F7BC4
:1025900065645D53616D7C8179858F9899807881C0
:1025A000877D8A868A8F796D64737D6C6F76878369
:1025B000859B9C9F998A7670837D77736E7A8A89D2
:1025C00092938B8179776F645E5E76817F79818665
:1025D000817980939BA1968F88817A79736A7077CD
:1025E0006F66676B6B777579829299A4A6B6B2987D
:1025F000877C73667572665E626760626D798498C7
:102600009190958680847A7D807F827E938C736F93
:1026100076757B8588807887867A797382838C86C5
:10262000747778767575868D848C7E757685959AA7
:10263000928F8074747170797E82857C79767877D8
:10264000857B6C6E7F828981767D8C8D918B8F8C62
:10265000816E667D76786D6F78787F8A949C9E9A7D
:1026600091948481797A756C655F62697784949CB2
:102670009D9B908177726860645F68717E777C94BF
:102680009289917F78777B8077827D767D8B969516
:10269000898E827B827F7A74796F7683736D6E7098
:1026A00081817E80879194939897908B807E797AB0
:1026B00072727768687B7070777E837E828A8B9176
:1026C0009A9B9C8D7E7B7B6D6F6968656C71757D57
:1026D000828991959E9C9B9B8A84747572746F6CA1
:1026E0006B6A757A81878B88848578797771767A39
:1026F000857F7B7F797E7D7D8B847D7E817B777DF1
:10270000828887848488878A8D8885868A89837B66
:10271000818076736C68656B706C6C6C737B888D74
:102720008F8A8E91888589878384827E79777B8161
:102730007A72717A807E7876777E7C868B8D9288AD
:102740008186867E807F83868A8A89807877706D8D
:102750006E7072767E7C7A83817C7E848C8C85829E
:10276000817F7D7C7D8585847E777A7976737679A5
:102770007E80858B8C8C817F82807A76767A7E7B58
:102780007D7C7B7E7E81848B8E8B8783807C7B7A35
:102790007A7A7A8183868B8B89837E797678787250
:1027A0006D6B6D747779797B8387898C8F918D8838
:1027B0008785857E78777B79787A7D817F7F84862F
:1027C0008888878984807A787172737A7D7C808129
:1027D0007D777D7B7B7B83817E7F7E7C7D8080831C
:1027E00083817B7A7A7A7A81807E7B7C79797D821B
:1027F000888A89878887807D7F7C7E7E7E797A7DC6
:102800007E7E7E7F828182827E7E81807A7B7A7BE1
:1028100079777B84858581807B7E8181807C817FC7
:102820007E8283828383817C7B797C777979787AD5
:102830007E84878B8A888A8886807C7D797B7B7E74
:102840007F828587837B7878737377787377787ADC
:102850007D7D7E8285898A8787888B8C8B8B8B890F
:10286000847F7D777373706D707376787C7B7E81E7
:1028700081827E83837F80858788888883807B7D33
:102880007C7B7B7C7C787A7B7F8081808282838763
:102890008C888481807C77767572757B7D8181845C
:1028A0008485827D7F7C7C7D7C7C7A7E8081838533
:1028B0008484817D7F807E7B77777A7B7C7B777752
:1028C000797E808387878585827E807D7D7C7A7C0A
:1028D0007F84878888888582807B7A7A7778787CFD
:1028E0007B787A7D7E80828387888584817C7C7AF0
:1028F0007E81818184807B7B7A7A787A7D7D7F82FC
:102900008584848483807D7C7A797C7D7D7C7D7CDC
:102910007B7C80817F7F7F81838583838381807FB0
:102920007B7A7B7B7A7C7E7C7A7C7F8081838383CD
:102930008486847F7E7F7D7B797A7D7E8082868897
:102940008888868582817F7A767475757678797BBA
:102950007C80818181838686848485827F7F7D7A65
:10296000797B7C7D7D80817F7E7E7F818282817F7D
:102970007D7D7D7F7F7C797A7B7A797C8081828383
:1029800084838585827F7C7C7B7B7B7B7B7D818157
:102990008284848384838382807F7F807F7C7A7A31
:1029A0007B7A7A7A797A7B7B7A7C7F7E7E80807F65
:1029B000808081818486868584838382807D7B7C00
:1029C0007D7B7979797B7D80838688898785827F05
:1029D0007E7E7D7B79787776787A7C7F8183858629
:1029E00087868484827E7C7978777A7D7D7D7C7E03
:1029F0007F7E7F80838688898783807E7C7B7B7BCC
:102A00007A7A7C7F81828282817F7D7A7A797777F8
:102A100077787A7C7F8285888888898582817F7DA6
:102A20007B7A7B7D7E80807F7E7D7D7F8182817FC2
:102A30007F7C7C7B7B7B7B7A7B7D7F8182828383B7
:102A40008383817F7D7D7D7D7E7F7F7D7D7E7F7F9A
:102A50007F80818180807E7E7F7E7E7E7E7E7E7E88
:102A60007F807E7E7F7F7F81818281828181828261
:102A70008181807D7C7A7A7A7B7C7C7C7B7C7E7F8A
:102A80007F808081838483848483817E7D7C7B7B43
:102A90007B7C7D7C7D7C7D7E7E7E80818283848349
:102AA0008283817F7E7E7E7C7C7E7E7E7E7E7E7E3D
:102AB0007E7D7F7E7F8081828384868686848381FB
:102AC0007E7B787776767779797A7C7D7E7F818256
:102AD0008181828280807F7F7E7E7E7F81838383EF
:102AE00082828383838485858482807E7D7B7A79DC
:102AF000787675767678797C7E7F81838484858507
:102B000084817F7D7C7C7B7B7A7A7B7C80818283E5
:102B100083838282828282838282807F7D7C7B7BB0
:102B2000797878797B7C7D7E8082848382818182C2
:102B30008281807D7C7C7B7B7B7C7E7D7D7E7F80BB
:102B4000818385858585848482807F7E7B79787882
:102B50007A7B7B7C7E808081828281828282838379
:102B6000807D7C7B7B7C7C7E7D7D7D7D7F80838585
:102B700087878888878583807C7977777778797A63
:102B80007A7B7D7E7F80818383817F7D7B7A7A7B68
:102B90007B7B7B7B7D7F8081818281807F7F7E7F4D
:102BA0007F7F7F7E7E7F7F7E7E7E7E80818283842C
:102BB0008585868584827F7E7C7B7A7A7A7A7A7A2A
:102BC0007B7E8081828383848382838281807F7EF7
:102BD0007D7C7B7B7A7A7B7D7E7F8080808081821A
:102BE000838382807F7D7D7D7E7F80807F7E7E7EF1
:102BF0007E7E7E7D7C7C7D7D7D7D7C7D7E7E7F80FE
:102C00008080808182828383838384838281807FAA
:102C10007E7D7E7E7F81838586878685827F7C79A7
:102C20007675747474747576787A7D808283848501
:102C3000858585848381807F7D7D7D7B7A797A7BA4
:102C40007C7D7D7E7F807F7F7F7F80818283848586
:102C50008787888684827E7B79787776767677799F
:102C60007B7E8081828384858686858482817F7E47
:102C70007C7B7A7A7B7B7C7C7D7D7E7E7F7F808285
:102C8000838483828180818180807F7E7D7D7D7E43
:102C90007F8081828283838382817F7E7E7D7B7938
:102CA0007878787A7B7C7C7D7D7D7D7D7E7F80825F
:102CB000848585858483807E7D7C7B7B7C7C7C7B1E
:102CC0007C7D7F80828384838382807F7E7E7E7E04
:102CD0007E7E7F81828384858583817F7D7B7A78F8
:102CE00078777677797B7D7F8184848585858585F6
:102CF00084828281818081807F7D7C7A79777777F9
:102D00007778797A7C7D7F81828485868483817FD0
:102D10007F7E7D7D7E7E7E7E7E7F7F8081818182C3
:102D200081807F7E7E7E808080807F7E7C7C7C7DBB
:102D30007D7C7C7C7C7C7C7D7E808182848585849E
:102D400082807E7D7C7C7D7E7D7D7C7C7D7E7F7FA8
:102D500080818282828281807F7E7D7D7D7D7E7D7D
:102D60007C7C7C7D7E7F80808283838281807F7D6E
:102D70007C7C7C7C7D7D7F8081828283828181815D
:102D80007F7D7B7B7C7C7C7C7C7C7D7F808080806D
:102D90008181828383838281807F7E7D7D7C7D7D36
:102DA0007D7E7F8183848482817F7D7B7978787941
:102DB0007A7B7C7D7E7F8183848585868584828104
:102DC0007F7D7C7C7B7B7B7B7C7C7D7D7E7E7E7E39
:102DD0007E7E7E7F7F81828383828181807F7E7DF4
:102DE0007D7D7E7F7F80807F7F7F7F7E7D7D7D7EFE
:102DF0007E7F7F818283838383838281807F7D7CCA
:102E00007B7A7A7B7B7B7B7B7B7C7C7C7D7F8082FF
:102E1000838484848383828181807E7D7C7C7B7CAF
:102E20007D7D7E7E7E7E7E7E7F7E7F7F80828384B0
:102E3000848381807F7E7D7C7C7C7C7D7E7F7F7FA8
:102E40007F7E7E7D7D7D7D7E7F7E7F7F7F7E7F7F9F
:102E500081828383828180807F7E7E7E7F7F7F7F71
:102E600080808080818180807F7E7C7B7A7A7A7A84
:102E70007B7B7D7E7F808182838384848484848441
:102E800083817F7C7B7A78787878797A7C7E7F8082
:102E9000818384858686858483817F7D7D7C7C7D1E
:102EA0007D7D7D7D7D7D7E7F7F7F7F7F7F7E7D7D44
:102EB0007E7E7E7E7E7E7E7E7E7F7F808181818122
:102EC00080807F7F7E7E7D7D7C7C7B7B7C7D7E7F2A
:102ED0008080808080807F7F7F80818283838382E7
:102EE000817F7D7C7B7A7A7B7C7C7D7D7E7F80810F
:102EF0008181818180807F7F7F7F7F807F7F7F7ED8
:102F00007E7E7E7F7F7F7F7F7F7F7F7F7F7F7F7ED5
:102F10007E7E7D7E7E7E7E7E7E7E7F7F80808181C6
:102F20008181808080807F7E7E7D7D7D7D7C7C7CBC
:102F30007D7E7E7E7F7F8080818282828281808092
:102F40007F7F7F7F7E7D7D7D7C7C7C7C7D7E7E7EA9
:102F50007E7F8081828282828283838281807F7D64
:102F60007C7C7B7B7B7B7C7D7E7F7F808080807F89
:102F70007F7F7F7F7F7F7F7F7E7E7E7E7E7F808064
:102F8000807F7F7F7F7F7F7F7F7F7F7F7E7E7E7E54
:102F90007E7E7E7E7E7E7E7F80818282838383832F
:102FA000838381807E7C7B7B7A7A7A7A7A7B7D7F51
:102FB0008081828383838281807F7F7E7D7C7C7C15
:102FC0007C7D7D7E7E7F7F80828383838381807F03
:102FD0007D7C7C7C7C7D7E7F7F7F7F7E7E7E7E7E17
:102FE0007E7F7F7F7E7F7E7E7E7E7E7F80808182F1
:102FF00082838281807F7F7F7F7F7F7F7E7E7E7ED8
:103000007E7E7E7E7E7E7E7E7E7F7F8080808080D4
:103010007F7F7E7E7E7E7E7E7E7D7D7D7D7D7E7ED3
:103020007E7F7F80808080808081818180808080A1
:10303000818182828181807F7E7D7D7C7B7B7A7AAB
:103040007B7B7D7E7F80818283838383838281807B
:103050007F7E7E7D7D7D7D7D7D7D7E7E7F7F808090
:103060008081818181807F7E7D7D7C7C7C7C7D7D7B
:103070007E7F7F7F7F7E7E7E7E7D7D7E7E7F808069
:10308000818181807F7F7F7F7F7F7F7E7E7E7E7F4D
:103090007F7F808181818282828281807F7E7D7C30
:1030A0007C7C7C7C7D7D7D7D7D7E7F7F7F80808143
:1030B0008181818180808080807F7E7E7D7E7D7D1C
:1030C0007D7D7D7D7D7D7E7E7F8082828383828209
:1030D00081807F7E7D7C7C7B7B7B7C7C7D7D7E7F1D
:1030E0007F808081828282828180807F7F7E7E7DE0
:1030F0007D7D7D7D7D7E7F80808181818180807FDF
:103100007F7E7E7E7D7D7D7D7D7D7E7E7E7F8080DF
:1031100081828281818180807F7E7E7D7D7D7D7DBB
:103120007E7E7F7F7F7F7F8080807F7F7F7F7F7FAE
:103130007F7F7E7E7E7E7E7F7F8080808080807F9E
:10314000808081818180807F7E7E7E7E7E7F7F8089
:1031500080807F7E7E7D7D7D7D7E7E7E7E7F7F7F8B
:103160007F7F7F7F7F80807F7F7F7E7E7D7D7D7E76
:103170007E7E7F7F7F7F7F8080807F7F7F7F7F7F5E
:103180007E7E7F7F7F7F80808181818080807F7F46
:103190007F7F7E7E7E7D7D7D7E7E7E7E7F7F7F804B
:1031A000818282828180807F7E7E7D7D7D7D7D7E2D
:1031B0007E7F7F808081818180807F7E7E7E7D7D1D
:1031C0007E7E7E7E7F7F80808080807F7F7E7E7E11
:1031D0007E7E7F7F7F7F7F7F7F7F7F7F7F7F8080FF
:1031E000808181818180807F7E7D7C7C7C7C7C7DF8
:1031F0007D7E7E7E7F80808080808080807F7F7EDD
:103200007E7E7F7F7F8080808080818180807F7EC6
:103210007E7D7D7D7C7D7D7D7E7E7F7F80808181CA
:103220008180807F7F7F7F7F7F7F7F8080808080A5
:10323000807F7E7D7D7D7D7D7D7D7D7E7E7F8080AE
:103240008080808080807F7F808080807F7F7F7E85
:103250007E7E7E7E7E7F7F7F7F7F7F7E7E7E7F7F86
:1032600080808080807F7F7F7E7E7E7E7E7E7E7E71
:103270007E7E7E7E7F7F7F7F7F807F7F808080805D
:1032800080808080807F7F7F7F7F7E007F7F7F7FC9
:103290007F7F7F7F7F7F7F7F7F7F7F7F7E7E7E7E42
:1032A0007E7E7E7E7E7E7E7E7E7E7E7E7E7E7E7E3E
:1032B0007E7E7E7D7D7D7D7D7D7D7D7D7D7D7D7D3B
:1032C0007D7D7D7D7D7D7D7D7C7C7C7C7C7C7C7C36
:1032D0007C7C7C7C7C7C7C7C7C7C7C7B7B7B7B7B33
:1032E0007B7B7B7B7B7B7B7B7B7B7B7B7A7A7A7A32
:1032F0007A7A7A7A7A7A7A7A7A7A7A7A7A7A797930
:10330000797979797979797979797979797979792D
:10331000797979787878787878787878787878782A
:10332000787878787878787878787878787878781D
:103330007878787778777777777777777777777719
:103340007777777777777877787778777A7C7D7DF6
:103350007F7F808181818082868B91989EA5B5E652
:10336000FFF8E6E4F0F0E9E4E4E4E0DCD9D8D8D40E
:10337000D1CCC7C2C0BEBDBAB8B6B3AEA8A09993EF
:103380008E88827B746E67615C57524F4B47433F18
:103390003A353232312F2D2D2C2B2A2B2A2A2A294D
:1033A000292A2D2F30323436373A3D3D3F414244B1
:1033B000474A4D5055595D6063686C7075797D81E1
:1033C00084898F959BA2A6ABB0B6BABFC2C3C4C452
:1033D000C5C6C8C9C9C9C9CACACBCBCACBCAC7C660
:1033E000C5C4C2BFBCBABABAB9B7B4B1AEACA9A56C
:1033F000A19B97948E88827E7975716B6764605EFD
:103400005B585653504F4C4A4744403E3C3937383E
:103410003937363636353534333232343536373857
:103420003737383B3C3C3D3E3F3F404142424447BA
:1034300048494A4C4F515254595C606265686B6F01
:103440007276787B7F828487898B8D9093969A9E03
:10345000A2A5A8ABAFB2B6BABCBFC1C4C7C9CCCED7
:10346000CFD0D1D2D2D2D1D1D1D2D3D2D2D3D3D341
:10347000D3D4D5D5D5D4D2D0CDCCCBC9C8C7C6C46A
:10348000C2C0BFBEBCBBB9B9B7B5B3B1AEACA9A6DB
:10349000A29F9C9995928F8C8885827F7C79767487
:1034A000716E6C696764625F5D5B58565452504E32
:1034B0004C4B494746444341403F3E3D3C3B3A39F3
:1034C000393837373736363636363636373737388F
:1034D0003839393A3A3B3B3C3C3D3E3E3F40404127
:1034E00042424344444546474748494A4B4C4D4F66
:1034F000505153545657595A5C5E60616365676911
:103500006B6D6F71737577797B7D7F81838587891B
:103510008B8D8F91939597999B9EA0A2A4A6A8AA04
:10352000ACAEB0B3B4B6B8BABCBEBFC1C2C4C5C6F7
:10353000C8C9CACBCCCCCDCECECFCFD0D0D0D1D1B4
:10354000D1D1D1D1D1D1D0D0D0D0CFCFCECECDCD81
:10355000CCCCCBCACAC9C8C7C7C6C5C4C3C2C1C000
:10356000BFBEBDBCBBB9B8B7B6B5B3B2B1AFAEACF8
:10357000ABA9A8A6A4A3A19F9D9C9A989694918F6D
:103580008D8B89878482807E7C7A777573716F6D6D
:103590006B6967666462605F5D5C5A595756545345
:1035A00051504F4E4C4B4A49474645444342414097
:1035B0003F3E3D3C3B3A393938373736363535357D
:1035C00034343434343434343434343435353535B7
:1035D0003636363637373738383939393A3A3B3B69
:1035E0003C3C3D3D3E3E3F3F4041414242434445DD
:1035F0004546474748494A4A4B4C4D4D4E4F50511E
:10360000515253545556565758595A5B5C5D5E5F3C
:1036100060626364656668696A6C6D6E707173740C
:103620007577787A7B7D7E808183848687888A8B94
:103630008D8E90919294959698999B9C9D9EA0A119
:10364000A2A4A5A6A8A9AAACADAEB0B1B2B4B5B6B5
:10365000B7B9BABBBCBEBFC0C1C2C3C4C5C6C7C868
:10366000C9CACACBCCCCCDCDCECECECECFCFCFCF8C
:10367000CFCFCFCFCFCFCFCECECECECECDCDCDCD67
:10368000CCCCCCCCCBCBCBCACACAC9C9C8C8C8C79A
:10369000C6C6C5C5C4C3C3C2C1C0C0BFBEBDBCBB16
:1036A000BBBAB9B8B7B6B5B4B3B2B1B0AFAFAEADDF
:1036B000ACABAAA9A8A7A6A5A4A3A2A1A09E9D9CC5
:1036C0009B999897959492918F8E8C8B89878684FD
:1036D00083817F7E7C7B797776747371706E6D6C7D
:1036E0006A69686665646261605F5E5D5B5A5958CD
:1036F00057565554535251504F4E4D4C4B4B4A49CF
:10370000484746464544444342424140403F3E3E8E
:103710003D3D3C3C3B3B3B3A3A3939393938383806
:103720003838383838383838383838383839393916
:10373000393A3A3A3B3B3B3C3C3C3D3D3D3E3E3ECC
:103740003F3F3F4040404141414242434343444464
:103750004545464647474849494A4A4B4B4C4D4DDB
:103760004E4F4F505051525253545455555657572F
:103770005858595A5A5B5C5C5D5E5F5F606162627B
:10378000636465666768696A6B6C6D6E6F70717291
:103790007374757677797A7B7C7D7E7F8182838472
:1037A00085868788898B8C8D8E8F90919293949546
:1037B0009798999A9B9C9D9E9FA0A1A2A3A4A5A621
:1037C000A7A8A9AAABACADAEAFB0B1B2B3B4B5B611
:1037D000B7B8B9BABBBBBCBDBEBFC0C0C1C2C3C312
:1037E000C4C5C5C6C6C7C7C8C8C9C9C9C9CACACA5F
:1037F000CACACACACACACACAC9C9C9C9C9C8C8C834
:10380000C8C7C7C7C6C6C6C5C5C5C4C4C4C3C3C365
:10381000C2C2C2C1C1C0C0BFBFBFBEBEBDBCBCBBB7
:10382000BBBAB9B9B8B7B7B6B5B4B4B3B2B1B0B042
:10383000AFAEADACABABAAA9A8A7A7A6A5A4A3A3FE
:10384000A2A1A09F9E9E9D9C9B9A999897969594C5
:10385000939291908F8E8D8B8A89888685848381BF
:10386000807F7D7C7B79787776747372706F6E6DF4
:103870006C6B696867666564636261605F5E5D5C0E
:103880005B5A5959585756555554535252515050E6
:103890004F4E4E4D4C4C4B4B4A4A4949484847477E
:1038A00046464645454444444343434242424241DE
:1038B0004141414140404040404040404040404004
:1038C00040414141414142424242434343444445D5
:1038D0004545464646474748484849494A4A4A4B6B
:1038E0004B4C4C4C4D4D4E4E4E4F4F5050515151F4
:1038F0005252535354545555565657585859595A6D
:103900005A5B5B5C5C5D5E5E5F5F606061616262D2
:10391000636364646565666767686869696A6A6B3A
:103920006C6C6D6D6E6F6F7071727273747475768E
:10393000777778797A7B7B7C7D7E7F8080818283BC
:1039400084848586878888898A8B8C8C8D8E8F8FDE
:10395000909192929394959596979898999A9A9B0C
:103960009C9D9D9E9F9FA0A1A1A2A3A3A4A5A5A647
:10397000A7A7A8A9A9AAABABACADADAEAEAFB0B08E
:10398000B1B1B2B2B3B3B4B4B5B5B6B6B6B7B7B7F2
:10399000B8B8B8B8B8B9B9B9B9B9B9B9B9B9B9B89D
:1039A000B8B8B8B8B8B7B7B7B7B7B6B6B6B6B5B5AA
:1039B000B5B4B4B4B4B3B3B3B3B2B2B2B1B1B1B0DD
:1039C000B0B0B0AFAFAEAEAEADADADACACABABAA20
:1039D000AAA9A9A8A8A7A7A6A5A5A4A4A3A2A2A18D
:1039E000A1A0A09F9E9E9D9D9C9B9B9A9A99989812
:1039F000979796969594949392929190908F8E8D9E
:103A00008D8C8B8A89888887868584838281807F54
:103A10007E7D7C7B7B7A7978777675747372717032
:103A2000706F6E6D6C6C6B6A6969686766666564F9
:103A3000646362626161605F5F5E5E5D5D5C5C5B92
:103A40005A5A5A5959585857575756565555555402
:103A5000545453535352525251515151505050504B
:103A6000504F4F4F4F4F4F4F4F4F4F4F4F4F4F4F65
:103A70004F4F4F4F4F4F4F4F50505050505151514B
:103A80005152525252535353535454545555555501
:103A9000565656575757575858585959595A5A5AA7
:103AA0005B5B5B5C5C5D5D5D5E5E5F5F5F6060613C
:103AB00061626263636364646565666667676768BD
:103AC0006869696A6A6A6B6B6C6C6D6D6E6E6E6F3D
:103AD0006F707071717272737474757576767778B1
:103AE0007879797A7B7B7C7D7D7E7F7F8080818207
:103AF0008283848485868687878889898A8A8B8C55
:103B00008C8D8D8E8E8F90909191929293949495AE
:103B10009596969797989899999A9A9B9B9C9C9D15
:103B20009D9E9E9F9F9FA0A0A1A1A2A2A3A3A3A48C
:103B3000A4A5A5A5A6A6A7A7A7A8A8A8A8A9A9A916
:103B4000A9A9AAAAAAAAAAAAAAAAAAAAAAAAAAAAD7
:103B5000AAAAAAAAA9A9A9A9A9A8A8A8A8A8A7A7DA
:103B6000A7A7A6A6A6A6A6A5A5A5A5A4A4A4A4A302
:103B7000A3A3A3A3A2A2A2A1A1A1A1A0A0A09F9F31
:103B80009F9E9E9E9D9D9C9C9C9B9B9A9A9A999978
:103B900098989797979696959594949493939292D4
:103BA00092919190908F8F8F8E8E8D8D8C8C8B8B30
:103BB0008A8A8989888887868685858483838281A5
:103BC00081807F7F7E7D7D7C7B7B7A79797877773A
:103BD0007675757474737272717170706F6F6E6ECA
:103BE0006D6D6C6C6B6B6A6A696969686867676739
:103BF000666665656564646463636362626261618D
:103C00006161606060605F5F5F5F5E5E5E5E5E5DC3
:103C10005D5D5D5D5D5C5C5C5C5C5C5C5C5C5C5CDF
:103C20005C5C5C5C5C5C5C5C5C5C5C5C5C5D5D5DD1
:103C30005D5D5D5E5E5E5E5E5E5F5F5F5F5F60609E
:103C4000606060616161616162626262626363635C
:103C50006363646464656565656666666667676711
:103C6000686868696969696A6A6A6B6B6B6C6C6CB5
:103C70006D6D6D6E6E6E6F6F6F6F70707071717154
:103C800072727273737474747575757676777777EC
:103C9000787879797A7A7B7B7C7C7D7D7D7E7E7F6E
:103CA0007F808081818282838384848585868686E5
:103CB0008787888889898A8A8A8B8B8C8C8D8D8D61
:103CC0008E8E8F8F8F9090919191929292939394E8
:103CD0009494959595969697979798989899999979
:103CE0009A9A9A9B9B9B9B9C9C9C9D9D9D9D9E9E16
:103CF0009E9E9E9E9F9F9F9F9F9F9F9F9F9F9F9FD8
:103D00009F9F9F9F9F9F9F9F9F9E9E9E9E9E9E9ECA
:103D10009D9D9D9D9D9D9C9C9C9C9C9C9B9B9B9BE1
:103D20009B9B9A9A9A9A9A9A9999999999989898FC
:103D30009897979797969696969595959494949329
:103D40009393929292929191919090908F8F8F8E67
:103D50008E8E8D8D8D8C8C8C8C8B8B8B8A8A8A89A8
:103D600089888888878786868685858484838382F8
:103D700082818180807F7F7E7E7D7D7C7C7B7B7A63
:103D80007A797979787877777676757574747473CB
:103D9000737372727171717070706F6F6F6E6E6E1F
:103DA0006D6D6D6C6C6C6C6B6B6B6B6A6A6A6A695F
:103DB000696969686868686867676767676766668A
:103DC00066666666656565656565656565656464A1
:103DD000646464646464646464646465656565659E
:103DE0006565656565656666666666666667676776
:103DF0006767676768686868686868696969696942
:103E0000696A6A6A6A6A6A6B6B6B6B6B6C6C6C6C06
:103E10006D6D6D6D6D6E6E6E6E6F6F6F6F707070BD
:103E2000707171717172727272737373737474746E
:103E30007475757576767676777777787878787919
:103E400079797A7A7A7B7B7C7C7C7D7D7D7E7E7EB7
:103E50007F7F808080818181828283838384848448
:103E60008585858686868787878888888989898ADF
:103E70008A8A8B8B8B8C8C8C8C8D8D8D8E8E8E8E7E
:103E80008F8F8F9090909091919191929292929326
:103E900093939394949494949595959595969696DA
:103EA00096969696979797979797979797979797A6
:103EB0009797979797979797979797969696969697
:103EC00096969595959595959594949494949493A8
:103ED00093939393939392929292929291919191C0
:103EE000919190909090908F8F8F8F8E8E8E8E8EDE
:103EF0008D8D8D8D8C8C8C8C8B8B8B8B8A8A8A8A0A
:103F00008989898989888888888787878787868635
:103F10008686858585858484848483838382828262
:103F20008181818080807F7F7F7E7E7E7D7D7D7CA4
:103F30007C7C7B7B7B7A7A7A7979797978787877E7
:103F4000777777767676767575757574747474731D
:103F50007373737372727272727171717171717045
:103F600070707070706F6F6F6F6F6F6F6E6E6E6E60
:103F70006E6E6E6E6E6D6D6D6D6D6D6D6D6D6D6D6C
:103F80006D6D6D6D6C6C6C6C6C6C6C6C6C6D6D6D6A
:103F90006D6D6D6D6D6D6D6D6D6D6D6D6D6E6E6E4E
:103FA0006E6E6E6E6E6E6E6F6F6F6F6F6F6F6F6F28
:103FB0006F707070707070707071717171717171FB
:103FC00072727272727273737373737374747474C3
:103FD0007474757575757575767676767677777788
:103FE000777777787878787879797979797A7A7A49
:103FF0007A7A7B7B7B7B7C7C7C7C7D7D7D7D7E7E01
:104000007E7E7F7F7F7F80808080818181818282B0
:104010008282838383838484848484858585858662
:10402000868686868787878787888888888889891B
:104030008989898A8A8A8A8A8A8B8B8B8B8B8B8CDB
:104040008C8C8C8C8C8D8D8D8D8D8D8E8E8E8E8EA0
:104050008E8E8E8E8F8F8F8F8F8F8F8F8F8F8F8F74
:104060008F8F8F8F8F8F8F8F8F8F8F8F8F8F8F8F60
:104070008F8F8E8E8E8E8E8E8E8E8E8E8D8D8D8D62
:104080008D8D8D8D8D8D8D8C8C8C8C8C8C8C8C8C69
:104090008C8C8B8B8B8B8B8B8B8B8B8A8A8A8A8A73
:1040A0008A8A898989898989898888888888888885
:1040B0008888878787878787878686868686868695
:1040C00086858585858585858484848484838383AA
:1040D0008383828282828281818181808080807FCD
:1040E0007F7F7F7E7E7E7E7E7D7D7D7D7C7C7C7CF9
:1040F0007B7B7B7B7B7A7A7A7A7A7A797979797920
:10410000787878787878777777777777767676763D
:104110007676767575757575757575747474747451
:10412000747474747373737373737373737372725D
:10413000727272727272727272727272727272725F
:10414000727272727272727272727272727272724F
:10415000727272727272727272727272737373733B
:10416000737373737373737373737373747474741B
:1041700074747474747474747575757575757575F7
:1041800075767676767676767677777777777777C9
:104190007778787878787878787979797979797999
:1041A0007A7A7A7A7A7A7A7B7B7B7B7B7C7C7C7C62
:1041B0007C7C7D7D7D7D7D7E7E7E7E7E7F7F7F7F24
:1041C0007F808080808081818181818182828282E2
:1041D00082838383838383848484848484858585A4
:1041E000858585858686868686868787878787876D
:1041F0008788888888888888888989898989898939
:10420000898A8A8A8A8A8A8A8A8A8A8B8B8B8B8B0A
:104210008B8B8B8B8B8B8B8B8B8B8B8B8B8B8B8BEE
:104220008B8B8B8B8B8B8B8B8B8A8A8A8A8A8A8AE5
:104230008A8A8A8A8A8A8A8A8A8A898989898989E4
:1042400089898989898989898989898888888888E3
:1042500088888888888888878787878787878787E7
:1042600087868686868686868686868585858585F2
:1042700085858585858584848484848484848483F9
:10428000838383838383828282828282818181810C
:10429000818180808080807F7F7F7F7F7F7E7E7E28
:1042A0007E7E7E7D7D7D7D7D7D7C7C7C7C7C7C7C42
:1042B0007B7B7B7B7B7B7B7A7A7A7A7A7A7A7A7958
:1042C0007979797979797979787878787878787866
:1042D0007877777777777777777777777776767670
:1042E000767676767676767676767676767676766E
:1042F000757575757575757575757575757576766C
:10430000767676767676767676767676767676764D
:104310007676767676767676767677777777777737
:104320007777777777777777777777787878787818
:1043300078787878787878787979797979797979F5
:10434000797979797A7A7A7A7A7A7A7A7A7A7A7AD1
:104350007B7B7B7B7B7B7B7B7B7B7C7C7C7C7C7CA7
:104360007C7C7D7D7D7D7D7D7D7D7E7E7E7E7E7E79
:104370007E7E7F7F7F7F7F7F7F7F80808080808049
:10438000808081818181818181818182828282821A
:1043900082828282838383838383838383838484EF
:1043A00084848484848484848485858585858585C6
:1043B00085858585858686868686868686868686A2
:1043C000868686868686868686868687878686868B
:1043D000868686868686868686868686868686867D
:1043E0008686868686868686868686868585858571
:1043F000858585858585858585858585858585856D
:104400008585858585848484848484848484848467
:104410008484848484838383838383838383838367
:104420008383838383838382828282828282828265
:104430008282828282818181818181818181818167
:104440008080808080808080807F7F7F7F7F7F7F73
:104450007F7E7E7E7E7E7E7E7E7E7E7D7D7D7D7D80
:104460007D7D7D7D7D7D7D7C7C7C7C7C7C7C7C7C85
:104470007C7C7C7C7B7B7B7B7B7B7B7B7B7B7B7B88
:104480007B7B7B7B7B7A7A7A7A7A7A7A7A7A7A7A87
:104490007A7A7A7A7A7A7A7A7A7A7A7A7A7A7A797D
:1044A000797979797979797979797979797A7A7A79
:1044B0007A7A7A7A7A7A7A7A7A7A7A7A7A7A7A7A5C
:1044C0007A7A7A7A7A7A7A7A7A7A7A7A7A7A7A7A4C
:1044D0007A7A7B7B7B7B7B7B7B7B7B7B7B7B7B7B2E
:1044E0007B7B7B7B7B7B7B7C7C7C7C7C7C7C7C7C13
:1044F0007C7C7C7C7C7C7C7C7C7C7D7D7D7D7D7DF6
:104500007D7D7D7D7D7D7D7D7D7D7D7D7E7E7E7ED7
:104510007E7E7E7E7E7E7E7E7E7F7F7F7F7F7F7FB4
:104520007F7F7F7F7F7F8080808080808080808091
:10453000808080808181818181818181818181816F
:10454000818181828282828282828282828282824E
:104550008282828282828283838383838383838332
:10456000838383838383838383838383838383831B
:1045700083838484848484848484848484848484FD
:1045800083838383838383838383838383838383FB
:1045900083838383838383838383838383828282EE
:1045A00082828282828282828282828282828282EB
:1045B00082828282828282828281818181818181E2
:1045C00081818181818181818181818181818181DB
:1045D00080808080808080808080808080808080DB
:1045E00080808080808080807F7F7F7F7F7F7F7FD3
:1045F0007F7F7F7F7F7F7F7F7E7E7E7E7E7E7E7ED3
:104600007E7E7E7E7E7E7D7D7D7D7D7D7D7D7D7DD4
:104610007D7D7D7D7D7D7D7D7D7C7C7C7C7C7C7CD1
:104620007C7C7C7C7C7C7C7C7C7C7C7C7C7C7C7CCA
:104630007C7C7C7C7C7C7C7C7C7C7C7C7C7B7B7BBD
:104640007B7B7B7B7B7B7B7B7B7B7B7B7B7B7B7BBA
:104650007B7B7B7B7B7B7B7B7B7B7B7B7C7C7C7CA6
:104660007C7C7C7C7C7C7C7C7C7C7C7C7C7C7C7C8A
:104670007C7C7C7C7C7C7C7C7C7C7C7D7D7D7D7D75
:104680007D7D7D7D7D7D7D7D7D7D7D7D7D7D7D7D5A
:104690007D7D7D7D7D7D7D7E7E7E7E7E7E7E7E7E41
:1046A0007E7E7E7E7E7E7E7E7E7E7E7E7E7E7E7E2A
:1046B0007E7E7F7F7F7F7F7F7F7F7F7F7F7F7F7F0C
:1046C0007F7F7F7F7F7F7F7F7F7F7F8080808080F5
:1046D00080808080808080808080808080808080DA
:1046E00080808181818181818181818181818181BC
:1046F00081818181818181818181818181818181AA
:10470000818181818181828282828282828282828F
:104710008282828282828282828282828282828279
:104720008282828282828282828282828282828269
:10473000828282828282828282828282818181815D
:104740008181818181818181818181818181818159
:104750008181818181818180808080808080808052
:104760008080808080808080808080808080808049
:1047700080808080808080808080807F7F7F7F7F3E
:104780007F7F7F7F7F7F7F7F7F7F7F7F7F7F7F7F39
:104790007F7F7F7F7F7F7F7F7F7F7F7F7F7F7F7F29
:1047A0007F7F7F7F7F7F7E7E7E7E7E7E7E7E7E7E23
:1047B0007E7E7E7E7E7E7E7E7E7E7E7E7E7E7E7E19
:1047C0007E7E7E7E7D7D7D7D7D7D7D7D7D7D7D7D15
:1047D0007D7D7D7D7D7D7D7D7D7D7D7D7D7D7D7D09
:1047E0007D7D7D7D7D7D7D7D7D7D7D7D7D7D7D7DF9
:1047F0007D7D7D7D7D7D7D7D7D7D7D7D7D7D7D7DE9
:104800007D7D7D7D7D7D7D7D7D7D7D7D7D7D7D7DD8
:104810007D7D7D7D7D7D7E7E7E7E7E7E7E7E7E7EBE
:104820007E7E7E7E7E7E7E7E7E7E7E7E7E7E7E7EA8
:104830007E7E7E7E7E7E7E7E7E7E7E7E7E7E7E7E98
:104840007F7F7F7F7F7F7F7F7F7F7F7F7F7F7F7F78
:104850007F7F7F7F7F7F7F7F7F7F7F7F7F7F7F7F68
:104860007F7F7F7F7F7F7F7F7F7F7F7F7F7F7F7F58
:104870007F7F7F7F7F7F7F7F7F7F7F7F7F7F7F8047
:104880008080808080808080808080808080808028
:104890008080808080808080808080808080808018
:1048A0008080808080808080808080808080808008
:1048B00080808080808080808080808080808080F8
:1048C00080808080808080808080808080808080E8
:1048D00080808080808080808080808080808080D8
:1048E00080808080808080808080808080808080C8
:1048F000808080808080808080807F000000000039
:1049000023002600290000000000240027002A00C0
:1049100000000000250028002B0004040404040407
:10492000040402020202020203030303030301025E
:10493000040810204080010204081020010204082D
:10494000102000000008000201000003040700001E
:10495000000000000000162C11241FBECFEFD8E08D
:10496000DEBFCDBF11E0A0E0B1E0E6E5F9E502C0B1
:1049700005900D92AE34B107D9F722E0AEE4B1E074
:1049800001C01D92A033B207E1F714E2CCEAD4E2F1
:1049900004C02197FE010E94A32CCB3AD107C9F78E
:1049A0000E943A290C94A92C0C940000833081F0C9
:1049B00028F4813099F08230A1F008958730A9F071
:1049C0008830B9F08430D1F4809180008F7D03C0AD
:1049D000809180008F7780938000089584B58F77D1
:1049E00002C084B58F7D84BD08958091B0008F771B
:1049F00003C08091B0008F7D8093B00008951F9315
:104A0000CF93DF93282F30E0F901EE5BF64B8491D2
:104A1000F901E25DF64BD491F901E65EF64BC491E3
:104A2000CC23C1F0162F81110E94D624EC2FF0E088
:104A3000EE0FFF1FE05FF64BA591B4919FB7F8947E
:104A4000111104C08C91D095D82302C0EC91DE2BBB
:104A5000DC939FBFDF91CF911F910895CF93DF9398
:104A600090E0FC01E25DF64B2491FC01E65EF64B22
:104A70008491882361F190E0880F991FFC01EA5F1F
:104A8000F64BC591D491FC01E05FF64BA591B49132
:104A9000611109C09FB7F89488812095822388838B
:104AA000EC912E230BC0623061F49FB7F89488819B
:104AB000322F309583238883EC912E2B2C939FBF2C
:104AC00006C08FB7F894E8812E2B28838FBFDF9123
:104AD000CF9108958E3008F08E5087708064809357
:104AE0007C0080917A00806480937A0080917A00C3
:104AF00086FDFCCF809178002091790090E0922B88
:104B000008953FB7F89480912C0290912D02A091C6
:104B10002E02B0912F0226B5A89B05C02F3F19F099
:104B20000196A11DB11D3FBFBA2FA92F982F88272D
:104B3000820F911DA11DB11DBC01CD0142E0660F88
:104B4000771F881F991F4A95D1F708952FB7F894BA
:104B5000609128027091290280912A0290912B0283
:104B60002FBF089581E08093230208950895862F32
:104B7000642F0C942E25CF93DF93FC01218530E028
:104B8000F901EE5BF64B8491F901E25DF64BD491AD
:104B9000F901E65EF64BC491CC2379F081110E94B5
:104BA000D624EC2FF0E0EE0FFF1FE450F74BA59159
:104BB000B491EC91ED2381E009F480E08170DF9104
:104BC000CF910895CF92DF92EF92FF920F931F93B0
:104BD000CF93DF93EC0188858B7F8887CE010E947D
:104BE000BB25182F888586958170181759F00E946B
:104BF000A6256A837B838C839D83988582E08927A1
:104C000088873AC00E94A625CA80DB80EC80FD80A0
:104C1000AB01BC014C195D096E097F098E819F8132
:104C2000A0E0B0E0481759076A077B0728F188859C
:104C30008170181709F10E94A6256A837B838C83F3
:104C40009D83988581E08927846088870E94A625B6
:104C50000A851B852C853D85DC01CB01801B910BD2
:104C6000A20BB30B8E879F87A88BB98B0E94A625BA
:104C70006A877B878C879D87888582FB882780F958
:104C8000DF91CF911F910F91FF90EF90DF90CF9028
:104C90000895CF93DF93EC01698718860E94BB25A6
:104CA000882319F08885836088870E94A6256A83F7
:104CB0007B838C839D83DF91CF9108950895E82FA6
:104CC000F0E0E958FE4F9081911171C0813011F1EF
:104CD00030F08230C1F1833009F44FC068C01092C7
:104CE000850110928401109262011092630110926A
:104CF00064011092650181E0809386019091250204
:104D0000992309F454C0A0912102B0912202AC5C15
:104D1000BE4F4CC0109282011092810110925E0130
:104D200010925F01109260011092610180938301E3
:104D3000909125029923D9F1A0912102B0912202EC
:104D4000AC5DBE4F33C010927F0110927E01109275
:104D50005A0110925B0110925C0110925D0181E09A
:104D60008093800190912502992309F1A09121025D
:104D7000B0912202AC5EBE4F19C010927C0110921D
:104D80007B01109256011092570110925801109217
:104D9000590181E080937D0190912502992339F09A
:104DA000A0912102B0912202AC5FBE4F8C9381E0B2
:104DB000808308951F920F920FB60F9211242F93A4
:104DC0003F938F939F93AF93BF93809128029091CD
:104DD0002902A0912A02B0912B023091270223E0F0
:104DE000230F2D3720F40196A11DB11D05C026E823
:104DF000230F0296A11DB11D209327028093280244
:104E000090932902A0932A02B0932B0280912C0246
:104E100090912D02A0912E02B0912F020196A11D1A
:104E2000B11D80932C0290932D02A0932E02B0937B
:104E30002F02BF91AF919F918F913F912F910F9032
:104E40000FBE0F901F9018951F920F920FB60F92E2
:104E500011242F933F934F935F936F937F938F937F
:104E60009F93AF93BF93EF93FF93E0910201F09173
:104E700003010995FF91EF91BF91AF919F918F91A0
:104E80007F916F915F914F913F912F910F900FBE46
:104E90000F901F9018951F920F920FB60F9211242A
:104EA0002F933F934F935F936F937F938F939F9332
:104EB000AF93BF93EF93FF93E0910001F091010155
:104EC0000995FF91EF91BF91AF919F918F917F9144
:104ED0006F915F914F913F912F910F900FBE0F9067
:104EE0001F9018951F920F920FB60F9211248F9258
:104EF0009F92AF92BF92CF92DF92EF92FF922F9349
:104F00003F934F935F936F937F938F939F93AF9351
:104F1000BF93CF93DF93EF93FF9388E28093B30027
:104F200080914401811130C020918401309185012C
:104F300080E796E1821B930B909385018093840117
:104F4000209181013091820182E991E1821B930BD2
:104F5000909382018093810120917E0130917F01A5
:104F600080E493E0821B930B90937F0180937E01FA
:104F700020917B0130917C0183E59DE1821B930BA5
:104F800090937C0180937B01E0918401F0918501F5
:104F9000E457FD4C649170E06F57710970935301B1
:104FA00060935201E0918101F0918201E550FF4D43
:104FB000449150E04F57510950935501409354018B
:104FC000E0917E01F0917F01E654F24E249130E0B1
:104FD0002F5731093093510120935001E0917B010B
:104FE000F0917C01E859FF4FE491F0E0CF018F5739
:104FF000910990934F0180934E01E0918601EE2339
:10500000D1F18090620190906301A0906401B09012
:105010006501C0907301D0907401E0907501F0902B
:105020007601C80CD91CEA1CFB1CC0926201D0920C
:105030006301E0926401F0926501B6E0F694E794B2
:10504000D794C794BA95D1F7D0928501C0928401C4
:10505000E1E7CE16E6E1DE0674F0109286011092CA
:1050600085011092840110926201109263011092E6
:10507000640110926501E0918301EE23D1F18090EB
:105080005E0190905F01A0906001B0906101C090BE
:105090006F01D0907001E0907101F0907201C80C26
:1050A000D91CEA1CFB1CC0925E01D0925F01E09209
:1050B0006001F0926101A6E0F694E794D794C7945A
:1050C000AA95D1F7D0928201C0928101E3E9CE1670
:1050D000E1E1DE0674F010928301109282011092D9
:1050E000810110925E0110925F0110926001109296
:1050F0006101E0918001EE23D1F180905A019090FE
:105100005B01A0905C01B0905D01C0906B01D090FC
:105110006C01E0906D01F0906E01C80CD91CEA1C86
:10512000FB1CC0925A01D0925B01E0925C01F092AC
:105130005D01F6E0F694E794D794C794FA95D1F719
:10514000D0927F01C0927E01E1E4CE16E3E0DE065C
:1051500074F01092800110927F0110927E011092E3
:105160005A0110925B0110925C0110925D01E09176
:105170007D01EE23D1F18090560190905701A090CF
:105180005801B0905901C0906701D0906801E0903B
:105190006901F0906A01C80CD91CEA1CFB1CC09282
:1051A0005601D0925701E0925801F0925901E6E081
:1051B000F694E794D794C794EA95D1F7D0927C01FE
:1051C000C0927B01E4E5CE16EDE1DE0674F01092AC
:1051D0007D0110927C0110927B0110925601109279
:1051E00057011092580110925901FB01E40FF51F6D
:1051F000E20FF31FE80FF91FF7FD07C0EF3FF105BE
:1052000029F024F0EFEFF0E001C0E0E080E1E89F5A
:10521000E0011124D06760E08AE00E94FF24DEBD37
:1052200000000DB407FEFDCF8EB5CEBD00000DB45D
:1052300007FEFDCF8EB561E08AE00E94FF24FF915A
:10524000EF91DF91CF91BF91AF919F918F917F911E
:105250006F915F914F913F912F91FF90EF90DF9071
:10526000CF90BF90AF909F908F900F900FBE0F90F8
:105270001F901895789484B5826084BD84B5816050
:1052800084BD85B5826085BD85B5816085BD809111
:105290006E00816080936E00109281008091810089
:1052A0008260809381008091810081608093810081
:1052B000809180008160809380008091B100846043
:1052C0008093B1008091B00081608093B0008091A4
:1052D0007A00846080937A0080917A008260809363
:1052E0007A0080917A00816080937A0080917A00C0
:1052F000806880937A001092C10061E080E10E9492
:105300002E250E9481254B015C01B4E6CB2ED12CC9
:10531000E12CF12C0E948125DC01CB01881999092F
:10532000AA09BB09883E9340A105B10598F321E085
:10533000C21AD108E108F10888EE880E83E0981EB1
:10534000A11CB11CC114D104E104F10419F761E0FE
:1053500080E10E94FF24CFB7F8948091660181110B
:1053600027C0E4E2F9E48491E8E3F9E49491E82FBA
:10537000F0E0EE0FFF1FEA5FF64BA591B491EC91C0
:10538000E92321F461E08AE00E94FF2461E08AE0E1
:105390000E942E258CB580618CBD8CB580648CBD3F
:1053A00061E08DE00E942E2561E08BE00E942E25B9
:1053B000809166018F5F80936601CFBF8CB58F7D32
:1053C0008CBD82E08093700090E89093B30080934E
:1053D000B00083E08093B10081E085BD80938100BF
:1053E00061E086E00E942E2561E089E00E942E2582
:1053F00061E085E00E942E2562E080E10E942E257A
:1054000062E081E10E942E2562E082E10E942E2569
:1054100062E083E10E942E2562E083E00E942E2557
:1054200062E084E00E942E2562E087E00E942E2543
:1054300062E088E00E942E2562E082E00E942E2534
:1054400082EB95E2909301018093000180916900C5
:105450008C7F816080936900E89A61E170E08BE065
:1054600092E00E944926C5E0D0E0D0931202C0939A
:10547000110260E170E088EF91E00E944926D0932C
:10548000FF01C093FE0162E170E085EE91E00E94B1
:105490004926D093EC01C093EB0163E170E082ED0B
:1054A00091E00E944926D093D901C093D80168E0C9
:1054B00070E087E891E00E944926D0938E01C09366
:1054C0008D0167E070E08CEA91E00E944926D0935C
:1054D000B301C093B20164E070E08FEB91E00E94F1
:1054E0004926D093C601C093C50163E070E089E905
:1054F00091E00E944926D093A001C0939F0160E0F3
:105500008EE00E942E2560E08FE00E942E2560E054
:1055100084E10E942E2560E085E10E942E257724FB
:10552000739460E1E62EF12C70E0C72E70E0D72E68
:10553000C1E08EE00E946A25959587950196092E17
:10554000000CAA0BBB0B8093730190937401A09382
:105550007501B09376018FE00E946A259595879535
:105560000196092E000CAA0BBB0B80936F01909340
:105570007001A0937101B093720184E10E946A25C9
:10558000959587950196092E000CAA0BBB0B80936D
:105590006B0190936C01A0936D01B0936E0185E156
:1055A0000E946A25959587950196092E000CAA0BF5
:1055B000BB0B8093670190936801A0936901B0933E
:1055C0006A018BE092E00E94E225809113028170D3
:1055D000882E80930A0288EF91E00E94E225809154
:1055E00000028170982E8093F70185EE91E00E9471
:1055F000E2258091ED018170A82E8093E40182ED77
:1056000091E00E94E2258091DA018170B82E8093AA
:10561000D1018FEB91E00E94E2251091C70111703A
:105620001093BE018CEA91E00E94E2258091B401C2
:105630008170582E8093AB0189E991E00E94E225A8
:105640008091A1018170682E8093260287E891E005
:105650000E94E225D0918F01D170D09324021111C4
:1056600005C0809145018725809345010091210265
:1056700010912202511012C0C8019927FC01EC5C64
:10568000FE4F1082FC01EC5DFE4F1082FC01EC5ECF
:10569000FE4F1082FC01EC5FFE4F1082611005C0CE
:1056A00080912502872580932502DD2319F0C09380
:1056B000440102C010924401F801EC5CFE4F80816D
:1056C000882371F080911D0281110AC0C093860168
:1056D00010928501109284010E945F26C0931D02E2
:1056E000F801EC5DFE4F8081882379F080911E02E5
:1056F00081110BC0C093830110928201109281012D
:1057000081E00E945F26C0931E02F801EC5EFE4F0E
:105710008081882379F080911F0281110BC0C09392
:10572000800110927F0110927E0182E00E945F262C
:10573000C0931F02F801EC5FFE4F8081882379F04F
:105740008091200281110BC0C0937D0110927C01D9
:1057500010927B0183E00E945F26C093200281109B
:1057600004C080E00E945F2602C010927701911071
:1057700004C081E00E945F2602C010927801A1104F
:1057800004C082E00E945F2602C010927901B1102D
:1057900004C083E00E945F2602C010927A010E943A
:1057A000A62580914501811102C061E001C060E041
:1057B00086E00E94FF2480912502811102C061E0F1
:1057C00001C060E085E00E94FF24D11106C061E0C5
:1057D00089E00E94FF2461E005C060E089E00E944A
:1057E000FF2460E086E00E94FF248091230288234A
:1057F000B1F080912102909122020196B7010E949E
:105800007B2C90932202809321021092230210920B
:105810001D0210921E0210921F0210922002C1144B
:10582000D10409F486CE0E94000083CEEBE0F2E0C2
:105830002AE431E03183208312821382148215829C
:105840008AE090E09783868310861186E8EFF1E086
:105850003183208312821382148215829783868378
:1058600010861186E5EEF1E03183208312821382E7
:10587000148215829783868310861186E2EDF1E00B
:105880003183208312821382148215829783868348
:1058900010861186E7E8F1E03183208312821382BB
:1058A000148215829783868310861186ECEAF1E0D4
:1058B0003183208312821382148215829783868318
:1058C00010861186EFEBF1E0318320831282138280
:1058D000148215829783868310861186E9E9F1E0A8
:1058E00031832083128213821482158297838683E8
:1058F00010861186089597FB072E16F4009407D0A2
:1059000077FD09D00E948F2C07FC05D03EF49095BE
:1059100081959F4F0895709561957F4F0895AA1BBB
:10592000BB1B51E107C0AA1FBB1FA617B70710F08A
:10593000A61BB70B881F991F5A95A9F780959095BC
:10594000BC01CD010895EE0FFF1F0590F491E02DED
:065950000994F894FFCF5A
:10595600B625B62501000000000001000000010088
:10596600000000000000010000000100000001002E
:10597600000001000000000001000000000000001F
:10598600010000000100000001000000010000000D
:0E59960001000000010100000000BB25B72544
:00000001FF
